S00F0000636963686963612E7372656351
S11300006AC0000087C0000085C0000083C00000F3
S113001081C000007FC000007DC000007BC00000E4
S113002079C0000077C0000075C0000073C00000F4
S113003071C000006FC000006DC000006BC0000004
S11300400C94931267C000000C94101363C000005A
S113005061C000000C94E6125DC000005BC00000AB
S113006059C0000057C0000055C0000053C0000034
S113007051C000004FC000004DC000004BC0000044
S113008049C0000047C0000045C0000043C0000054
S113009041C0000005A84CCDB2D44EB93836A902EF
S11300A00C50B9918688083CA6AAAA2ABE00000072
S11300B0803F0664EC1B3C04BC163E3BE5B93CC9DE
S11300C03C37C29E5A3D660498083EEA69AAAA3E95
S11300D0000000803F0011241FBECFEFD0E1DEBF3F
S11300E0CDBF11E0A0E0B1E0EAEBF7E300E00BBF25
S11300F002C007900D92AE31B107D9F721E0AEE10D
S1130100B1E001C01D92AC35B207E1F70E947E0F49
S11301100C94DB1B75CFCF93DF931F92CDB7DEB763
S113012088ED90E022E0FC0120838BED90E020E25A
S1130130FC0120838EED90E021E0FC01208382EE1F
S113014090E022E0FC01208383EE90E024E0FC01B7
S1130150208384EE90E023E1FC01208319823EC0D9
S11301608DEE90E029812295207FFC0120838EEE84
S113017090E0FC0110828FEE90E0FC01108280EF91
S113018090E0FC01108281EF90E0FC01108282EF8C
S113019090E0FC01108283EF90E0FC01108284EF78
S11301A090E0FC01108285EF90E0FC01108286EF64
S11301B090E0FC01108287EF90E0FC01108289EF4F
S11301C090E0FC01108288EF90E0FC0110828AEF3D
S11301D090E0FC01108289818F5F898389818F304F
S11301E008F4BECF8BED90E02BED30E0F9012081D7
S11301F02068FC01208300000F90DF91CF910895C7
S1130200CF93DF9300D000D0CDB7DEB769837A8374
S11302108B839C838DEE90E0FC01108284EF90E050
S11302202FEFFC01208385EF90E02FEFFC0120836A
S113023086EF90E02FEFFC01208387EF90E02FEF13
S1130240FC01208382EF90E029812295220F207EF9
S1130250FC01208323EF30E089819A81AB81BC814A
S1130260689412F8B695A795979587951694D1F743
S1130270F90180838FEE90E028E8FC0120830000E0
S11302800F900F900F900F90DF91CF9108950F93DF
S1130290CF93DF93CDB7DEB727970FB6F894DEBFC1
S11302A00FBECDBF89834A835B836C837D832E839A
S11302B00F838DEE90E029812295207FFC0120831D
S11302C08EEE90E0FC01108284EF90E02FEFFC01B1
S11302D0208385EF90E02FEFFC01208386EF90E0F0
S11302E02FEFFC01208387EF90E02FEFFC012083A8
S11302F08E818823D9F180EF90E02A81220F220F8A
S1130300220FFC01208321EF30E08A819B81AC81A4
S1130310BD81689414F8B695A7959795879516941A
S1130320D1F7F901808322EF30E08A819B81AC818F
S1130330BD81072E7DE0B695A795979587957A950B
S1130340D1F7702DF901808323EF30E08A819B81FE
S1130350AC81BD81072E75E1B695A79597958795D4
S11303607A95D1F7702DF901808318C082EF90E05F
S11303702A812295220F207EFC01208323EF30E086
S11303808A819B81AC81BD81689412F8B695A7954A
S1130390979587951694D1F7F90180838FEE90E0B5
S11303A02E81222F30E022953295307F3227207F14
S11303B03227322F2F81232B2068FC012083000059
S11303C027960FB6F894DEBF0FBECDBFDF91CF9155
S11303D00F910895EF92FF920F93CF93DF93CDB7D0
S11303E0DEB72A970FB6F894DEBF0FBECDBF8A835F
S11303F04B835C836D837E832F830887FA86E9862B
S11304008DEE90E02A812295207FFC0120838EEEE0
S113041090E0FC0110828F818823D9F180EF90E075
S11304202B81220F220F220FFC01208321EF30E0C9
S11304308B819C81AD81BE81689414F8B695A79593
S1130440979587951694D1F7F901808322EF30E0D0
S11304508B819C81AD81BE81072E7DE0B695A795E9
S1130460979587957A95D1F7702DF901808323EFBD
S113047030E08B819C81AD81BE81072E75E1B695FC
S1130480A795979587957A95D1F7702DF901808373
S113049018C082EF90E02B812295220F207EFC0170
S11304A0208323EF30E08B819C81AD81BE816894F1
S11304B012F8B695A795979587951694D1F7F901F3
S11304C080838FEE90E02FEE30E0F9012081422FFF
S11304D02F81222F30E022953295307F3227207FE2
S11304E03227242BFC012083198210C08AEF90E06C
S11304F02981222F30E049855A85240F351FF901BF
S11305002081FC01208389818F5F8983998188857B
S1130510981760F38FEE90E028852064FC01208317
S113052000002A960FB6F894DEBF0FBECDBFDF9150
S1130530CF910F91FF90EF9008958F929F92AF9279
S1130540BF92CF92DF92EF92FF920F931F93CF93BC
S1130550DF93CDB7DEB76E970FB6F894DEBF0FBE4C
S1130560CDBF9E878D87788B6F875A8B498B0B8B7A
S11305701C8B2D8B3E8BCF8AD88EE98EFA8E8B8E78
S11305809C8EAD8EBE8E89899A89FC018081918171
S1130590A281B381BC01CD010E94A616DC01CB016E
S11305A02B893C894D895E89BC01CD010E942C18A0
S11305B0DC01CB012DA53EA54FA558A9BC01CD0159
S11305C00E942C18DC01CB012BA93CA9F9018083E2
S11305D09183A283B3838D859E85FC018081918163
S11305E0A281B3812BA93CA9F901208131814281E7
S11305F05381BC01CD010E943E16DC01CB018983ED
S11306009A83AB83BC8389899A89FC018081918117
S1130610A281B381BC01CD010E948F18DC01CB0102
S11306202B893C894D895E89BC01CD010E942C181F
S1130630DC01CB012DA53EA54FA558A9BC01CD01D8
S11306400E942C18DC01CB012DA93EA9F90180835D
S11306509183A283B3838F859889FC0180819181E2
S1130660A281B3812DA93EA9F90120813181428162
S11306705381BC01CD010E943E16DC01CB018D8368
S11306809E83AF83B8878F89988DA98DBA8DBC015D
S1130690CD010E949518DC01CB012DA53EA54FA5E7
S11306A058A9BC01CD010E942C18DC01CB012FA953
S11306B038ADF90180839183A283B3838D859E85B0
S11306C0FC0180819181A281B3812FA938ADF90108
S11306D02081318142815381BC01CD010E943E16AB
S11306E0DC01CB0189879A87AB87BC8720E030E0A7
S11306F0A90169857A858B859C850E94A216882329
S113070034F489A99AA921E0FC01208304C089A9B1
S11307109AA9FC01108200006E960FB6F894DEBF11
S11307200FBECDBFDF91CF911F910F91FF90EF903E
S1130730DF90CF90BF90AF909F908F900895EF92ED
S1130740FF920F931F93CF93DF93CDB7DEB76C97D0
S11307500FB6F894DEBF0FBECDBF698B7A8B8B8B3F
S11307609C8B2D8B3E8B4F8B588FE98EFA8E0B8F83
S11307701C8F80E090E6AAE6B6E489839A83AB8373
S1130780BC8320E030E04AE754E469897A898B89A4
S11307909C890E94A916DC01CB0129813A814B81F5
S11307A05C81BC01CD010E942C18DC01CB018D833E
S11307B09E83AF83B88720E030E04AE754E46D8934
S11307C07E898F89988D0E94A916DC01CB0129812D
S11307D03A814B815C81BC01CD010E942C18DC0163
S11307E0CB0189879A87AB87BC8729853A854B8556
S11307F05C856D817E818F8198850E943D16DC0128
S1130800CB01298D3A8D4B8D5C8DBC01CD010E94AD
S11308102C18DC01CB018D879E87AF87B88B8D8523
S11308209E85AF85B889BC01CD016C960FB6F8944E
S1130830DEBF0FBECDBFDF91CF911F910F91FF900F
S1130840EF900895CF93DF93CDB7DEB7A0970FB69F
S1130850F894DEBF0FBECDBF88E290E028E230E01E
S1130860F90120812860FC01208380E090E0A0E869
S1130870BFE389839A83AB83BC832BEA3AEA4AE2D7
S113088050E469817A818B819C810E942C18DC015F
S1130890CB018D839E83AF83B88789819A81AB8195
S11308A0BC819C01AD01BC01CD010E943E16DC015E
S11308B0CB0189879A87AB87BC8720E030E040E88A
S11308C05FE36D817E818F8198850E94A2168823C3
S11308D01CF481E08D87B2C020E03FEF4FE757E47E
S11308E069857A858B859C850E94281818160CF0DA
S11308F07BC020E030E04AE754E469817A818B814F
S11309009C810E94A916DC01CB018E879F87A88B4E
S1130910B98B20E030E04AEF54E46E857F85888906
S113092099890E942C18DC01CB018A8B9B8BAC8BA0
S1130930BD8B20E030E040E85FE36A897B898C89E5
S11309409D890E94A21688232CF481E090E09F8B5D
S11309508E8B3FC020E03FEF4FE757E46A897B89E5
S11309608C899D890E94281818164CF520E030E0E7
S113097040E251E46E857F85888999890E942C180C
S1130980DC01CB01BC01CD010E941117DC01CB01BC
S11309909F8B8E8B0FC088EC90E0998F888F888D09
S11309A0998D0197F1F7998F888F8E899F89019787
S11309B09F8B8E8B8E899F89892B69F73FC06A89AB
S11309C07B898C899D890E941117DC01CB019F8B47
S11309D08E8B8E899F899B8F8A8F8A8D9B8D0197A1
S11309E0F1F79B8F8A8F2AC020E030E04FE753E471
S11309F06D817E818F8198850E9428181816ACF429
S1130A0069857A858B859C850E941117DC01CB0151
S1130A109D8F8C8F8C8D9D8D9F8F8E8F8E8D9F8DB6
S1130A200197F1F79F8F8E8F0FC06D817E818F812B
S1130A3098850E941117DC01CB018D878D8588A3D1
S1130A4088A18A95F1F788A388E290E028E230E053
S1130A50F9012081277FFC0120830000A0960FB6B6
S1130A60F894DEBF0FBECDBFDF91CF9108950F93F1
S1130A701F93CF93DF93CDB7DEB7CA5AD1090FB610
S1130A80F894DEBF0FBECDBF80E090E0A8E4B2E4EE
S1130A9089839A83AB83BC838E010F551F4F20E05B
S1130AA030E04AEF54E469817A818B819C810E9411
S1130AB02C18DC01CB01F80180839183A283B383DA
S1130AC0CE018F559F4F20E030E040E85FE3FC010A
S1130AD060817181828193810E94A21688234CF4E3
S1130AE0CE018B559F4F21E030E0FC013183208300
S1130AF069C0CE018F559F4F20E03FEF4FE757E489
S1130B00FC0160817181828193810E9428181816EA
S1130B100CF046C020E030E040E251E469817A8183
S1130B208B819C810E942C18DC01CB018E010B551A
S1130B301F4FBC01CD010E941117DC01CB01F8014C
S1130B409183808324C0CE0189559F4F28EC30E0E7
S1130B50FC0131832083CE0189559F4FFC018081A4
S1130B6091810197F1F79E0129553F4FF901918336
S1130B708083CE018B559F4F9E012B553F4FF9012A
S1130B802081318121503109FC0131832083CE0140
S1130B908B559F4FFC0180819181892BA1F62CC03C
S1130BA08E010B551F4FCE018F559F4FFC01608165
S1130BB07181828193810E941117DC01CB01F801BC
S1130BC091838083CE0187559F4F9E012B553F4FC4
S1130BD0F90120813181FC0131832083CE018755C5
S1130BE09F4FFC01808191810197F1F79E01275568
S1130BF03F4FF9019183808388E290E020E3FC0178
S1130C00208320DE80E090E0A0E2B2E48D839E8326
S1130C10AF83B8878E010B571F4F2BEA3AEA4AE29B
S1130C2050E46D817E818F8198850E942C18DC01AF
S1130C30CB01F80180839183A283B3838E0107578C
S1130C401F4F8D819E81AF81B8859C01AD01BC0190
S1130C50CD010E943E16DC01CB01F8018083918313
S1130C60A283B383CE018B579F4F20E030E040E84E
S1130C705FE3FC0160817181828193810E94A216ED
S1130C8088233CF4CE0183579F4F21E0FC0120834D
S1130C902CC1CE0187579F4F20E03FEF4FE757E429
S1130CA0FC0160817181828193810E942818181649
S1130CB00CF0CDC020E030E04AE754E46D817E8141
S1130CC08F8198850E94A916DC01CB019E012257D1
S1130CD03F4FF90180839183A283B3838E010E5623
S1130CE01F4FCE0182579F4F20E030E04AEF54E47B
S1130CF0FC0160817181828193810E942C18DC0146
S1130D00CB01F80180839183A283B383CE018E56F5
S1130D109F4F20E030E040E85FE3FC016081718197
S1130D20828193810E94A21688234CF4CE018A56B4
S1130D309F4F21E030E0FC01318320836DC0CE0160
S1130D408E569F4F20E03FEF4FE757E4FC01608150
S1130D507181828193810E94281818160CF04AC070
S1130D60CE0182579F4F20E030E040E251E4FC0185
S1130D7060817181828193810E942C18DC01CB01F6
S1130D808E010A561F4FBC01CD010E941117DC01D0
S1130D90CB01F8019183808324C0CE0188569F4FF4
S1130DA028EC30E0FC0131832083CE0188569F4F2C
S1130DB0FC01808191810197F1F79E0128563F4FF4
S1130DC0F90191838083CE018A569F4F9E012A5652
S1130DD03F4FF9012081318121503109FC013183D8
S1130DE02083CE018A569F4FFC0180819181892BFB
S1130DF0A1F67BC08E010A561F4FCE018E569F4F1F
S1130E00FC0160817181828193810E941117DC0150
S1130E10CB01F80191838083CE0186569F4F9E01BA
S1130E202A563F4FF90120813181FC01318320830F
S1130E30CE0186569F4FFC01808191810197F1F785
S1130E409E0126563F4FF901918380834EC0CE0107
S1130E508B579F4F20E030E04FE753E4FC01608163
S1130E607181828193810E94281818166CF58E0175
S1130E7004561F4FCE0187579F4FFC01608171813B
S1130E80828193810E941117DC01CB01F8019183C7
S1130E908083CE0182569F4F9E0124563F4FF90115
S1130EA020813181FC0131832083CE0182569F4F02
S1130EB0FC01808191810197F1F79E0122563F4FF9
S1130EC0F9019183808328C08E0103571F4FCE01FF
S1130ED08B579F4FFC0160817181828193810E94B5
S1130EE01117DC01CB01F8018083CE0180569F4F9E
S1130EF09E0123573F4FF9012081FC012083CE013D
S1130F0080569F4FFC018081282F2A95F1F7CE014E
S1130F1080569F4FFC01208388E290E020E2FC0190
S1130F20208390DC88E290E020E8FC0120838ADCC6
S1130F3080E090E0A0E2B2E489879A87AB87BC871F
S1130F408E0107591F4F2BEA3AEA4AE250E46985B9
S1130F507A858B859C850E942C18DC01CB01F801D5
S1130F6080839183A283B3838E0103591F4F8985A4
S1130F709A85AB85BC859C01AD01BC01CD010E9465
S1130F803E16DC01CB01F80180839183A283B383F5
S1130F90CE0187599F4F20E030E040E85FE3FC0139
S1130FA060817181828193810E94A21688233CF41E
S1130FB0CE018F589F4F21E0FC0120832CC1CE012C
S1130FC083599F4F20E03FEF4FE757E4FC016081D6
S1130FD07181828193810E94281818160CF0CDC06B
S1130FE020E030E04AE754E469857A858B859C8566
S1130FF00E94A916DC01CB019E012E583F4FF90136
S113100080839183A283B3838E010A581F4FCE013C
S11310108E589F4F20E030E04AEF54E4FC01608199
S11310207181828193810E942C18DC01CB01F8012B
S113103080839183A283B383CE018A589F4F20E09B
S113104030E040E85FE3FC0160817181828193813B
S11310500E94A21688234CF4CE0186589F4F21E0AB
S113106030E0FC01318320836DC0CE018A589F4F4C
S113107020E03FEF4FE757E4FC01608171818281FA
S113108093810E94281818160CF04AC0CE018E587D
S11310909F4F20E030E040E251E4FC016081718127
S11310A0828193810E942C18DC01CB018E010658A9
S11310B01F4FBC01CD010E941117DC01CB01F801C7
S11310C09183808324C0CE0184589F4F28EC30E064
S11310D0FC0131832083CE0184589F4FFC01808121
S11310E091810197F1F79E0124583F4FF9019183B3
S11310F08083CE0186589F4F9E0126583F4FF901A9
S11311002081318121503109FC0131832083CE01BA
S113111086589F4FFC0180819181892BA1F67BC069
S11311208E0106581F4FCE018A589F4FFC016081E3
S11311307181828193810E941117DC01CB01F80136
S113114091838083CE0182589F4F9E0126583F4F42
S1131150F90120813181FC0131832083CE01825841
S11311609F4FFC01808191810197F1F79E012258E4
S11311703F4FF901918380834EC0CE0187599F4F21
S113118020E030E04FE753E4FC016081718182810B
S113119093810E94281818166CF58E0100581F4F71
S11311A0CE0183599F4FFC016081718182819381BB
S11311B00E941117DC01CB01F80191838083CE01D9
S11311C08E579F4F9E0120583F4FF9012081318156
S11311D0FC0131832083CE018E579F4FFC01808117
S11311E091810197F1F79E012E573F4FF9019183A9
S11311F0808328C08E010F581F4FCE0187599F4FFF
S1131200FC0160817181828193810E941117DC014C
S1131210CB01F8018083CE018C579F4F9E012F583C
S11312203F4FF9012081FC012083CE018C579F4F51
S1131230FC018081282F2A95F1F7CE018C579F4F0E
S1131240FC01208388E290E020E2FC012083FADAAA
S113125088E290E020E8FC012083F4DA80E090E06A
S1131260A0E2B2E48D879E87AF87B88B8E01035BC3
S11312701F4F2BEA3AEA4AE250E46D857E858F855A
S113128098890E942C18DC01CB01F801808391839A
S1131290A283B3838E010F5A1F4F8D859E85AF8520
S11312A0B8899C01AD01BC01CD010E943E16DC0150
S11312B0CB01F80180839183A283B383CE01835B46
S11312C09F4F20E030E040E85FE3FC0160817181E2
S11312D0828193810E94A21688233CF4CE018B5A0A
S11312E09F4F21E0FC0120832CC1CE018F5A9F4FD8
S11312F020E03FEF4FE757E4FC0160817181828178
S113130093810E94281818160CF0CDC020E030E01C
S11313104AE754E46D857E858F8598890E94A916D5
S1131320DC01CB019E012A5A3F4FF901808391834E
S1131330A283B3838E01065A1F4FCE018A5A9F4F50
S113134020E030E04AEF54E4FC0160817181828145
S113135093810E942C18DC01CB01F80180839183D6
S1131360A283B383CE01865A9F4F20E030E040E849
S11313705FE3FC0160817181828193810E94A216E6
S113138088234CF4CE01825A9F4F21E030E0FC01C7
S1131390318320836DC0CE01865A9F4F20E03FEFFA
S11313A04FE757E4FC0160817181828193810E943F
S11313B0281818160CF04AC0CE018A5A9F4F20E014
S11313C030E040E251E4FC016081718182819381CB
S11313D00E942C18DC01CB018E01025A1F4FBC0164
S11313E0CD010E941117DC01CB01F80191838083A8
S11313F024C0CE01805A9F4F28EC30E0FC01318399
S11314002083CE01805A9F4FFC01808191810197F6
S1131410F1F79E01205A3F4FF90191838083CE0159
S1131420825A9F4F9E01225A3F4FF90120813181F8
S113143021503109FC0131832083CE01825A9F4F10
S1131440FC0180819181892BA1F67BC08E01025A17
S11314501F4FCE01865A9F4FFC01608171818281AA
S113146093810E941117DC01CB01F80191838083E1
S1131470CE018E599F4F9E01225A3F4FF901208180
S11314803181FC0131832083CE018E599F4FFC01B1
S1131490808191810197F1F79E012E593F4FF90107
S11314A0918380834EC0CE01835B9F4F20E030E068
S11314B04FE753E4FC0160817181828193810E9432
S11314C0281818166CF58E010C591F4FCE018F5A2F
S11314D09F4FFC0160817181828193810E94111769
S11314E0DC01CB01F80191838083CE018A599F4F9F
S11314F09E012C593F4FF90120813181FC01318338
S11315002083CE018A599F4FFC01808191810197EC
S1131510F1F79E012A593F4FF9019183808328C036
S11315208E010B5A1F4FCE01835B9F4FFC016081DC
S11315307181828193810E941117DC01CB01F80132
S11315408083CE0188599F4F9E012B5A3F4FF9014A
S11315502081FC012083CE0188599F4FFC018081AA
S1131560282F2A95F1F7CE0188599F4FFC0120833B
S113157088E290E0FC01108265D988E290E020EFD7
S1131580FC0120835FD980E090E0A0E2B2E4898B83
S11315909A8BAB8BBC8B2BEA3AEA4AE250E469891A
S11315A07A898B899C890E942C18DC01CB0189AB38
S11315B09AABABABBCAB89899A89AB89BC899C01DA
S11315C0AD01BC01CD010E943E16DC01CB018DAB07
S11315D09EABAFABB8AF20E030E040E85FE369A971
S11315E07AA98BA99CA90E94A21688231CF481E0E5
S11315F089AF09C120E03FEF4FE757E46DA97EA909
S11316008FA998AD0E94281818160CF0BEC020E0CF
S113161030E04AE754E469897A898B899C890E947D
S1131620A916DC01CB018AAF9BAFACAFBDAF8E0175
S1131630025C1F4F20E030E04AEF54E46AAD7BAD1A
S11316408CAD9DAD0E942C18DC01CB01F801808388
S11316509183A283B383CE01CE9620E030E040E8AC
S11316605FE3FC0160817181828193810E94A216F3
S113167088234CF4CE018E5B9F4F21E030E0FC01C7
S11316803183208367C0CE01CE9620E03FEF4FE741
S113169057E4FC0160817181828193810E94281842
S11316A018160CF046C020E030E040E251E46AAD88
S11316B07BAD8CAD9DAD0E942C18DC01CB018E015D
S11316C00E5B1F4FBC01CD010E941117DC01CB0141
S11316D0F8019183808324C0CE018C5B9F4F28EC5A
S11316E030E0FC0131832083CE018C5B9F4FFC01F1
S11316F0808191810197F1F79E012C5B3F4FF901A5
S113170091838083CE018E5B9F4F9E012E5B3F4F62
S1131710F9012081318121503109FC013183208379
S1131720CE018E5B9F4FFC0180819181892BA1F6B4
S11317306AC08E010E5B1F4FCE01CE96FC01608104
S11317407181828193810E941117DC01CB01F80120
S113175091838083CE018A5B9F4F9E012E5B3F4F16
S1131760F90120813181FC0131832083CE018A5B20
S11317709F4FFC01808191810197F1F79E012A5BC3
S11317803F4FF901918380833EC020E030E04FE772
S113179053E469A97AA98BA99CA90E942818181650
S11317A04CF58E01085B1F4F6DA97EA98FA998ADDA
S11317B00E941117DC01CB01F80191838083CE01D3
S11317C0865B9F4F9E01285B3F4FF9012081318149
S11317D0FC0131832083CE01865B9F4FFC01808115
S11317E091810197F1F79E01265B3F4FF9019183A7
S11317F080831CC069A97AA98BA99CA90E9411178E
S1131800DC01CB0189AFCE01845B9F4F29ADFC0184
S11318102083CE01845B9F4FFC018081282F2A9571
S1131820F1F7CE01845B9F4FFC01208388E290E0B6
S1131830FC01108207D888E290E020E1FC012083BB
S113184001D880E090E0A0E0B0E48D8B9E8BAF8B5C
S1131850B88F20E030E04AEF54E46D897E898F89A7
S1131860988D0E942C18DC01CB018FA398A7A9A7FF
S1131870BAA720E030E040E85FE36FA178A589A52E
S11318809AA50E94A21688232CF481E090E09CA7DC
S11318908BA73FC020E03FEF4FE757E46FA178A547
S11318A089A59AA50E94281818164CF520E030E066
S11318B040E251E46D897E898F89988D0E942C18AD
S11318C0DC01CB01BC01CD010E941117DC01CB016D
S11318D09CA78BA70FC088EC90E09EA78DA78DA531
S11318E09EA50197F1F79EA78DA78BA59CA50197AF
S11318F09CA78BA78BA59CA5892B69F714C06FA106
S113190078A589A59AA50E941117DC01CB019CA793
S11319108BA78BA59CA598AB8FA78FA598A901979A
S1131920F1F798AB8FA788E290E0FC0110820E9447
S1131930220488E290E020E6FC0120830E94220435
S113194080E090E0A0E2B1E4898F9A8FAB8FBC8FE6
S113195020E030E04AEF54E4698D7A8D8B8D9C8DC4
S11319600E942C18DC01CB018D8F9E8FAF8FB8A302
S113197020E030E040E85FE36D8D7E8D8F8D98A18F
S11319800E94A21688232CF481E090E09AA389A3F4
S11319903FC020E03FEF4FE757E46D8D7E8D8F8D84
S11319A098A10E94281818164CF520E030E040E277
S11319B051E4698D7A8D8B8D9C8D0E942C18DC01ED
S11319C0CB01BC01CD010E941117DC01CB019AA30C
S11319D089A30FC088EC90E09CA38BA38BA19CA14E
S11319E00197F1F79CA38BA389A19AA101979AA3CC
S11319F089A389A19AA1892B69F714C06D8D7E8D65
S1131A008F8D98A10E941117DC01CB019AA389A3A1
S1131A1089A19AA19EA38DA38DA19EA10197F1F7FF
S1131A209EA38DA30000C655DF4F0FB6F894DEBF0A
S1131A300FBECDBFDF91CF911F910F910895CF932A
S1131A40DF93CDB7DEB7A1970FB6F894DEBF0FBE14
S1131A50CDBF89A380E090E0A0E2B2E489839A83B9
S1131A60AB83BC832BEA3AEA4AE250E469817A8187
S1131A708B819C810E942C18DC01CB018D839E8379
S1131A80AF83B88789819A81AB81BC819C01AD0108
S1131A90BC01CD010E943E16DC01CB0189879A87E7
S1131AA0AB87BC8720E030E040E85FE36D817E8156
S1131AB08F8198850E94A21688231CF481E08D876B
S1131AC0B2C020E03FEF4FE757E469857A858B8504
S1131AD09C850E94281818160CF07BC020E030E08A
S1131AE04AE754E469817A818B819C810E94A9161A
S1131AF0DC01CB018E879F87A88BB98B20E030E077
S1131B004AEF54E46E857F85888999890E942C1850
S1131B10DC01CB018A8B9B8BAC8BBD8B20E030E04E
S1131B2040E85FE36A897B898C899D890E94A216BB
S1131B3088232CF481E090E09F8B8E8B3FC020E0C3
S1131B403FEF4FE757E46A897B898C899D890E941E
S1131B50281818164CF520E030E040E251E46E8578
S1131B607F85888999890E942C18DC01CB01BC01EE
S1131B70CD010E941117DC01CB019F8B8E8B0FC00E
S1131B8088EC90E0998F888F888D998D0197F1F773
S1131B90998F888F8E899F8901979F8B8E8B8E89D1
S1131BA09F89892B69F73FC06A897B898C899D89C4
S1131BB00E941117DC01CB019F8B8E8B8E899F892C
S1131BC09B8F8A8F8A8D9B8D0197F1F79B8F8A8FCC
S1131BD02AC020E030E04FE753E46D817E818F819D
S1131BE098850E9428181816ACF469857A858B8527
S1131BF09C850E941117DC01CB019D8F8C8F8C8DED
S1131C009D8D9F8F8E8F8E8D9F8D0197F1F79F8F66
S1131C108E8F0FC06D817E818F8198850E941117F0
S1131C20DC01CB018D878D8588A388A18A95F1F786
S1131C3088A388E290E029A1207F2460FC0120830E
S1131C400E94220488E290E029A1222F30E022950C
S1131C503295307F3227207F32272460FC01208395
S1131C600E9422040000A1960FB6F894DEBF0FBEB6
S1131C70CDBFDF91CF910895CF93DF93CDB7DEB77A
S1131C80A1970FB6F894DEBF0FBECDBF89A380E045
S1131C9090E0A0E2B2E489839A83AB83BC832BEA0D
S1131CA03AEA4AE250E469817A818B819C810E94FC
S1131CB02C18DC01CB018D839E83AF83B887898187
S1131CC09A81AB81BC819C01AD01BC01CD01D6D709
S1131CD0DC01CB0189879A87AB87BC8720E030E0A1
S1131CE040E85FE36D817E818F8198850E94A21612
S1131CF088231CF481E08D87AFC020E03FEF4FE7DD
S1131D0057E469857A858B859C850E942818181666
S1131D100CF07AC020E030E04AE754E469817A812B
S1131D208B819C810E94A916DC01CB018E879F8741
S1131D30A88BB98B20E030E04AEF54E46E857F85B0
S1131D40888999890E942C18DC01CB018A8B9B8B92
S1131D50AC8BBD8B20E030E040E85FE36A897B898F
S1131D608C899D89EFD788232CF481E090E09F8BA8
S1131D708E8B3FC020E03FEF4FE757E46A897B89B1
S1131D808C899D890E94281818164CF520E030E0B3
S1131D9040E251E46E857F85888999890E942C18D8
S1131DA0DC01CB01BC01CD010E941117DC01CB0188
S1131DB09F8B8E8B0FC088EC90E0998F888F888DD5
S1131DC0998D0197F1F7998F888F8E899F89019753
S1131DD09F8B8E8B8E899F89892B69F73DC06A8979
S1131DE07B898C899D890E941117DC01CB019F8B13
S1131DF08E8B8E899F899B8F8A8F8A8D9B8D01976D
S1131E00F1F79B8F8A8F28C020E030E04FE753E43E
S1131E106D817E818F8198850E9428181816A4F4FC
S1131E2069857A858B859C85FCD7DC01CB019D8FE8
S1131E308C8F8C8D9D8D9F8F8E8F8E8D9F8D019716
S1131E40F1F79F8F8E8F0EC06D817E818F81988573
S1131E50E8D7DC01CB018D878D8588A388A18A957D
S1131E60F1F788A389A18334D0F489A1806889A378
S1131E7088E290E029A1207FFC0120830E942204B3
S1131E8088E290E029A1222F30E022953295307F1C
S1131E903227207F3227FC0120830E942204000085
S1131EA0A1960FB6F894DEBF0FBECDBFDF91CF91E0
S1131EB00895CF93DF9300D000D0CDB7DEB79C83D5
S1131EC08B838B819C819A8389830AC089819A81BF
S1131ED09C012F5F3F4F3A832983FC018081AFDD52
S1131EE089819A81FC018081882381F700000F9009
S1131EF00F900F900F90DF91CF9108958F929F9242
S1131F00AF92BF92CF92DF92EF92FF920F931F9303
S1131F10CF93DF93CDB7DEB7C254D1090FB6F8948F
S1131F20DEBF0FBECDBF04D419D40E94370583E3AE
S1131F3090E02FD40E948B007894809100019091BE
S1131F400101A0910201B0910301BC01CD010E94E5
S1131F50000180912401882309F416C1809158015D
S1131F60882F90E0382F222780915701882F90E006
S1131F70822B932B092E000CAA0BBB0BBC01CD01A9
S1131F807ED7DC01CB012AE037ED43E25DE3BC01FF
S1131F90CD010E942C18DC01CB0189839A83AB8389
S1131FA0BC832BED3FE049E450E469817A818B8165
S1131FB09C810E942C18DC01CB0120E030E044E33A
S1131FC053E4BC01CD01C5D6DC01CB0180932801CB
S1131FD090932901A0932A01B0932B0180915A0177
S1131FE0882F90E083709927382F222780915901F8
S1131FF0882F90E0822B932B90932D0180932C01BA
S113200080915B01882F90E08F7099279C010024B8
S1132010369527950794369527950794322F202DCA
S113202080915A0186958695882F90E0822B932B78
S113203090932F0180932E0180915B01882F90E073
S11320408071992795958795959587959595879509
S1132050959587958093300180913001813051F4BA
S113206088EE93E090932D0180932C0110922F0120
S113207010922E01C0900401D0900501E090060159
S1132080F090070180912E0190912F01CC01A0E0E6
S1132090B0E0BC01CD01F1D64B015C0180912C0173
S11320A090912D01CC01A0E0B0E0BC01CD01E5D6BA
S11320B0DC01CB0187017601A5019401BC01CD01AE
S11320C00E949F03DC01CB01809331019093320184
S11320D0A0933301B09334018091040190910501E0
S11320E0A0910601B0910701E0902801F090290128
S11320F000912A0110912B0120913101309132017C
S113210040913301509134016DE371E0672F6F9377
S11321106DE371E06F9369E371E0672F6F9369E397
S113212071E06F9365E371E0672F6F9365E371E08E
S11321306F9367E271E0672F6F9367E271E06F93CB
S11321406B2F6F936A2F6F93692F6F938F93812CEB
S1132150912C54016894A7F8B6F8670178018901B5
S11321609A0141E451E062E571E085E491E00E9466
S11321709D022DB73EB7245F3F4F0FB6F8943EBF84
S11321800FBE2DBF1092240180912001882309F4F1
S11321903AC18DB79EB76C0188E08D832D81822F63
S11321A090E001979F838E83822F90E0EDB7FEB776
S11321B0E81BF90B0FB6F894FEBF0FBEEDBF8DB749
S11321C09EB7019699878887809145019091460131
S11321D0A0914701B091480120E030E44CE156E47D
S11321E0BC01CD0139D7DC01CB01BC01CD0119D62D
S11321F0DC01CB019B878A87809152019091530126
S1132200A0915401B091550120E030E543EC57E42E
S1132210BC01CD0121D7DC01CB01BC01CD0101D62C
S1132220DC01CB019D878C87809141019091420113
S1132230A0914301B091440120E030E543EC57E420
S1132240BC01CD0109D7DC01CB01BC01CD01E9D52D
S1132250DC01CB018E878091310190913201A091F4
S11322603301B091340120E030E04AE754E4BC018A
S1132270CD01F2D6DC01CB01BC01CD01D2D5DC010C
S1132280CB01988B8F878A859B85929582958F70D9
S113229089279F708927282F88859985FC012083A9
S11322A08A85282F2295207F8C859D85892F9927C3
S11322B0282B88859985FC0121832C85888599851F
S11322C0FC0122832F8588859985FC0123838F85D2
S11322D09889892F9927282F88859985FC0124833B
S11322E08E85882F90E0990F880B990F982F881F5F
S11322F0282F88859985FC0125838E85282F229592
S113230026952695237088859985FC0126838E85DC
S1132310282F220F220F88859985FC012783888521
S113232099857C010D8120E042E250E060E070E09C
S113233081E00E94EA018CE290E0FC018081882F18
S113234090E084709927892B19F481E080935601D9
S113235080915601813071F58CE290E0FC0180811E
S1132360882F90E084709927892B21F182E290E0F4
S113237022E230E0F901308122E02327FC012083AE
S113238010924501109246011092470110924801A3
S1132390109252011092530110925401109255015F
S11323A01092410110924201109243011092440193
S11323B0109256018CE290E0FC01808188231CF08D
S11323C081E080932201809122018130A9F48CE282
S11323D090E0FC01808188237CF482E290E022E298
S11323E030E0F901308120E12327FC01208381E0E2
S11323F08093240110922201109220010FB6F894C8
S1132400DEBE0FBECDBE80912101882309F495CD97
S113241082E290E022E230E0F901308121E02327DA
S1132420FC0120830F2EFDE3CF2EF1E0DF2EF02DF3
S11324300F2EF9E3EF2EF1E0FF2EF02D05E311E06E
S113244021E431E047E251E062E571E085E491E0A6
S1132450E3D18091520190915301A0915401B09124
S11324605501BC01CD01DDD4DC01CB018C0180918F
S1132470450190914601A0914701B0914801BC01EA
S1132480CD01CFD4DC01CB01212F2F93202F2F930B
S1132490292F2F938F9388E091E0892F8F9388E0E1
S11324A091E08F93CE014196292F2F938F93A8D635
S11324B02DB73EB7285F3F4F0FB6F8943EBF0FBE0F
S11324C02DBF80E0D9DBCE014196F3DC8091410140
S11324D090914201A0914301B0914401BC01CD010E
S11324E0A0D4DC01CB01882F90E0292F2F938F9368
S11324F085E191E0892F8F9385E191E08F93CE015F
S11325004196292F2F938F937BD60F900F900F9086
S11325100F900F900F9082E3AFDBCE014196C9DCA0
S1132520109221010ACD1F920F9200905F000F922A
S113253011242F933F934F935F936F937F938F93C4
S11325409F93AF93BF93CF93DF93CDB7DEB78091C3
S11325501E0190911F01019690931F0180931E010B
S113256081E08093200140911E0150911F019A0146
S1132570ADECBCEC73D39695879596958795969517
S11325808795880F991F9C01220F331F220F331F39
S1132590820F931F9A01281B390BC901892B19F447
S11325A081E0809321010000DF91CF91BF91AF9131
S11325B09F918F917F916F915F914F913F912F9157
S11325C00F9000925F000F901F9018951F920F922A
S11325D000905F000F92112400905B000F928F9384
S11325E09F93EF93FF93CF93DF93CDB7DEB786EC42
S11325F090E0FC0180818093250181E08093260195
S11326000000DF91CF91FF91EF919F918F910F90F7
S113261000925B000F9000925F000F901F9018953E
S11326201F920F9200905F000F92112400905B00A4
S11326300F920F932F933F934F935F936F937F93D7
S11326408F939F93AF93BF93EF93FF93CF93DF93B6
S113265000D0CDB7DEB71A828DEE90E0FC01108277
S11326608EEE90E0FC018081882F90E080729927A3
S1132670892B99F18FEE90E0FC0180818F708A8321
S113268019820EC08981882F90E02AEF30E0F90189
S11326902081895A9E4FFC01208389818F5F898321
S11326A099818A81981770F38EEE90E02EEE30E0D7
S11326B0F90120812F7DFC01208320912301809149
S11326C0000190910101A0910201B091030108E081
S11326D0AC01BD0180E00E9447018A8180935101D1
S11326E081E08093240182E290E022E230E0F9016B
S11326F0308120E82327FC01208300000F900F90F5
S1132700DF91CF91FF91EF91BF91AF919F918F9105
S11327107F916F915F914F913F912F910F910F9006
S113272000925B000F9000925F000F901F9018952D
S1132730CF93DF93CDB7DEB781E290E02FE1FC01C8
S113274020838DE290E0FC0110828EE290E02FEF76
S1132750FC0120830000DF91CF910895CF93DF9394
S1132760CDB7DEB784E490E02DE0FC01208387E45C
S113277090E02DE4FC0120838EE690E02EE630E02C
S1132780F90120812260FC0120830000DF91CF91B8
S11327900895CF93DF9300D0CDB7DEB79A838983B2
S11327A085EC90E029813A81232F3327FC01208393
S11327B084EC90E02981FC01208380EC90E0FC0112
S11327C0108282EC90E026E0FC01208381EC90E012
S11327D028E9FC01208300000F900F90DF91CF9136
S11327E00895CF93DF931F92CDB7DEB7898300009E
S11327F080EC90E0FC018081882F90E08072992722
S1132800892BB1F386EC90E02981FC012083000040
S11328100F90DF91CF910895CF92DF92EF92FF92C4
S11328200F931F93CF93DF93CDB7DEB7A6970FB661
S1132830F894DEBF0FBECDBF9A8F898F7C8F6B8FCC
S11328405E8F4D8F38A32F8F1AA309A3FCA2EBA28E
S1132850DEA2CDA20DB71EB78DB79EB77C01898DC0
S11328609A8DFC0180819181A281B38129A13AA131
S1132870F9012081318142815381BC01CD01FED116
S1132880DC01CB01298D3A8DF90180839183A283E8
S1132890B3838B8D9C8DFC0180819181A281B38156
S11328A02BA13CA1F9012081318142815381BC01DA
S11328B0CD01E4D1DC01CB012B8D3C8DF90180836A
S11328C09183A283B3838F8D98A1FC018081918130
S11328D0A281B3812DA13EA1F901208131814281E0
S11328E05381BC01CD01CAD1DC01CB012F8D38A1AC
S11328F0F90180839183A283B383898D9A8DFC012E
S113290080819181A281B38120E030E0A901BC01E2
S1132910CD0118D2882354F48D8D9E8DFC018081C5
S1132920282F24608D8D9E8DFC0120838B8D9C8DA2
S1132930FC0180819181A281B38120E030E0A90172
S1132940BC01CD01FFD1882354F48D8D9E8DFC01F3
S11329508081282F22608D8D9E8DFC0120838F8D98
S113296098A1FC0180819181A281B38120E030E0B3
S1132970A901BC01CD01E6D1882354F48D8D9E8D2F
S1132980FC018081282F21608D8D9E8DFC01208388
S113299084E190E09F838E838E819F819C012150EE
S11329A03109398728872DB73EB7281B390B0FB655
S11329B0F8943EBF0FBE2DBF8DB79EB701969B877F
S11329C08A878A859B8525EBFC0120838A859B85E4
S11329D022E6FC0121838A859B8521E0FC01228378
S11329E08E819F81892F9927282F8A859B85FC01B9
S11329F023832E818A859B85FC012483898D9A8D6E
S1132A00FC0180819181A281B38120E030E543EC17
S1132A1057E4BC01CD0120D3DC01CB01BC01CD01C5
S1132A2000D2DC01CB018C879D87AE87BF878B8D5D
S1132A309C8DFC0180819181A281B38120E030E5ED
S1132A4043EC57E4BC01CD0107D3DC01CB01BC014D
S1132A50CD01E7D1DC01CB01888B998BAA8BBB8B91
S1132A608F8D98A1FC0180819181A281B38120E0A6
S1132A7030E543EC57E4BC01CD01EED2DC01CB01DF
S1132A80BC01CD01CED1DC01CB018C8B9D8BAE8BF7
S1132A90BF8B8C859D85AE85BF858B2F9927AA27F3
S1132AA0BB27282F8A859B85FC0125838C859D85E2
S1132AB0AE85BF85CD01AA27BB27282F8A859B8594
S1132AC0FC0126838C859D85AE85BF85892F9A2F31
S1132AD0AB2FBB27282F8A859B85FC0127832C8558
S1132AE08A859B85FC01208788899989AA89BB8965
S1132AF08B2F9927AA27BB27282F8A859B85FC0122
S1132B00218788899989AA89BB89CD01AA27BB27EE
S1132B10282F8A859B85FC01228788899989AA891F
S1132B20BB89892F9A2FAB2FBB27282F8A859B859A
S1132B30FC01238728898A859B85FC0124878C894D
S1132B409D89AE89BF898B2F9927AA27BB27282F58
S1132B508A859B85FC0125878C899D89AE89BF89DF
S1132B60CD01AA27BB27282F8A859B85FC012687B0
S1132B708C899D89AE89BF89892F9A2FAB2FBB275A
S1132B80282F8A859B85FC0127872C898A859B852C
S1132B90FC01208B8D8D9E8DFC018081888F8A8520
S1132BA09B85288DFC01218B19821A821C821B8231
S1132BB015C08B819C8102962A853B85820F931FC9
S1132BC0FC0180819981890F89839A818981890F88
S1132BD08A838B819C8101969C838B838B819C81CE
S1132BE00C973CF38A859B852981FC01228B8A857D
S1132BF09B852A81FC01238B1D820FC08D81882F28
S1132C0090E02A853B85820F931FFC018081882FE9
S1132C1090E0E7DD8D818F5F8D838D81843170F34A
S1132C208D8D9E8DFC0110820FB6F894FEBE0FBEF2
S1132C30EDBE00000FB6F8941EBF0FBE0DBFA696E2
S1132C400FB6F894DEBF0FBECDBFDF91CF911F91B9
S1132C500F91FF90EF90DF90CF900895A29FB00165
S1132C60B39FC001A39F700D811D1124911DB29FBC
S1132C70700D811D1124911D08955058BB27AA275A
S1132C800ED09BC164D130F069D120F031F49F3F64
S1132C9011F41EF459C10EF4E095E7FB4FC1E92F7E
S1132CA0AED180F3BA17620773078407950718F04B
S1132CB071F49EF5C6C10EF4E0950B2EBA2FA02D2B
S1132CC00B01B90190010C01CA01A0011124FF27D5
S1132CD0591B99F0593F50F4503E68F11A16F040D0
S1132CE0A22F232F342F4427585FF3CF46953795CF
S1132CF02795A795F0405395C9F77EF41F16BA0B94
S1132D00620B730B840BBAF09150A1F0FF0FBB1F41
S1132D10661F771F881FC2F70EC0BA0F621F731F8A
S1132D20841F48F4879577956795B795F7959E3FE7
S1132D3008F0B3CF9395880F08F09927EE0F979575
S1132D4087950895D7D008F481E008950FD1E395CD
S1132D5045C10CD032C102D140F0F9D030F021F499
S1132D605F3F19F0EBC051116DC1EEC048D198F32B
S1132D709923C9F35523B1F3951B550BBB27AA27F8
S1132D8062177307840738F09F5F5F4F220F331F6A
S1132D90441FAA1FA9F333D00E2E3AF0E0E830D036
S1132DA091505040E695001CCAF729D0FE2F27D039
S1132DB0660F771F881FBB1F261737074807AB0707
S1132DC0B0E809F0BB0B802DBF01FF2793585F4F7C
S1132DD02AF09E3F510568F0B1C034C15F3FECF367
S1132DE0983EDCF3869577956795B795F7959F5F41
S1132DF0C9F7880F911D9695879597F90895E1E095
S1132E00660F771F881FBB1F621773078407BA07F3
S1132E1020F0621B730B840BBA0BEE1F88F7E0954E
S1132E200895F5D088F09F5790F0B92F9927B7519E
S1132E30A0F0D1F0660F771F881F991F1AF0BA957A
S1132E40C9F712C0B13081F0FCD0B1E00895F9C0E7
S1132E50672F782F8827B85F39F0B93FCCF3869570
S1132E6077956795B395D9F73EF4909580957095CD
S1132E7061957F4F8F4F9F4F0895E89409C097FB4A
S1132E803EF490958095709561957F4F8F4F9F4F3D
S1132E909923A9F0F92F96E9BB279395F695879581
S1132EA077956795B795F111F8CFFAF4BB0F11F444
S1132EB060FF1BC06F5F7F4F8F4F9F4F16C08823EB
S1132EC011F096E911C0772321F09EE8872F762F21
S1132ED005C0662371F096E8862F70E060E02AF062
S1132EE09A95660F771F881FDAF7880F969587954E
S1132EF097F90895990F0008550FAA0BE0E8FEEF23
S1132F0016161706E807F907C0F012161306E407A9
S1132F10F50798F0621B730B840B950B39F40A26A2
S1132F2061F0232B242B252B21F408950A2609F480
S1132F30A140A6958FEF811D811D089597F99F6784
S1132F4080E870E060E008959FEF80EC089500242D
S1132F500A941616170618060906089500240A94FA
S1132F6012161306140605060895EECF50D0E8F3A2
S1132F70E894E0E0BB279F57F0F02AED3FE049ECEE
S1132F8006C0EE0FBB0F661F771F881F28F0B23AEA
S1132F9062077307840728F0B25A620B730B840B21
S1132FA0E3959A9572F7803830F49A95BB0F661FB3
S1132FB0771F881FD2F79048DAC0092E0394000CBB
S1132FC011F4882352F0BB0F40F4BF2B11F460FFBF
S1132FD004C06F5F7F4F8F4F9F4F0895EF93E0FFC3
S1132FE006C0A2EA2AED3FE049EC5FEB58DEE5DFDC
S1132FF00F90039401FC9058E4E9F0E0C4C057FD3D
S11330009058440F551F59F05F3F71F04795880F52
S113301097FB991F61F09F3F79F0879508951216E9
S113302013061406551FF2CF4695F1DF08C0161695
S113303017061806991FF1CF869571056105089446
S11330400895E894BB2766277727CB0197F908955D
S113305051DF08F48FEF08950BD0AFCF78DF28F05D
S11330607DDF18F0952309F069CF6ECF1124EACFE4
S1133070C6DFA0F3959FD1F3950F50E0551F629FD3
S1133080F001729FBB27F00DB11D639FAA27F00DBD
S1133090B11DAA1F649F6627B00DA11D661F829FE4
S11330A02227B00DA11D621F739FB00DA11D621FC9
S11330B0839FA00D611D221F749F3327A00D611DE6
S11330C0231F849F600D211D822F762F6A2F1124C8
S11330D09F5750408AF0E1F088234AF0EE0FFF1F1B
S11330E0BB1F661F771F881F91505040A9F79E3F52
S11330F0510570F023CFA6CF5F3FECF3983EDCF38D
S1133100869577956795B795F795E7959F5FC1F78E
S1133110FE2B880F911D9695879597F908959F9397
S113312025DF0F9007FCEE5F59CFDF93D92F1EDF09
S1133130E695D7952AED3FE049E45FE3B33A6207A9
S1133140730784079507D7952AF0A2EA49EC90689B
S1133150A6DD33DFE2EBF0E016D0DD0F0BF024D078
S1133160DD0F0BF49058DF9108959F3F31F091509B
S113317020F4879577956795B795880F911D969557
S1133180879597F908959F938F937F936F93FF93F8
S1133190EF939B01AC0160DFEF91FF910CD02F9175
S11331A03F914F915F9158CF9B01AC0160E070E07B
S11331B080E89FE3CECDDF93CF931F930F93FF92CD
S11331C0EF92DF927B018C01689405C0DA2EEF0147
S11331D04FDFFE01E894A5912591359145915591D4
S11331E0AEF3EF015CDDFE019701A801DA9479F7F3
S11331F0DF90EF90FF900F911F91CF91DF91089591
S11332000F931F93CF93DF93CDB7DEB72E970FB6EF
S1133210F894DEBF0FBECDBF0D891E8986E08C8376
S11332201A8309838FEF9FE79E838D83AE01475EE8
S11332305F4F6F89788DCE01019610D0EF81F885AC
S1133240E00FF11F10822E960FB6F894DEBF0FBE6A
S1133250CDBFDF91CF911F910F9108952F923F928F
S11332604F925F926F927F928F929F92AF92BF9292
S1133270CF92DF92EF92FF920F931F93CF93DF933E
S1133280CDB7DEB72B970FB6F894DEBF0FBECDBF18
S11332906C017B018A01FC0117821682838181FF04
S11332A0BFC1CE0101963C01F6019381F70193FD64
S11332B0859193FF81917F01882309F4ADC1853203
S11332C039F493FD859193FF81917F01853221F437
S11332D0B60190E0D6D1E8CF912C212C312CFFE11E
S11332E0F315D8F08B3279F038F4803279F08332E8
S11332F0A1F4232D20611DC08D3261F0803369F467
S1133300232D216016C0832D8260382EE32DE460C6
S11333103E2E2AC0F32DF8601DC037FC2DC020EDD1
S1133320280F2A3040F08E32B9F436FC75C1232DB3
S11333302064322E19C036FE06C08AE0989E200D05
S11333401124922E11C0EAE02E9E200D1124222E6B
S1133350F32DF0623F2E08C08C3621F4832D806853
S1133360382E02C0883641F4F70193FD859193FF0E
S113337081917F018111B3CF982F9F7D9554933014
S113338028F40C5F1F4F9FE399830DC0833631F0FF
S1133390833771F0833509F055C020C0F80180816E
S11333A089830E5F1F4F88248394912C530112C08C
S11333B02801F2E04F0E511CF801A080B18036FEC6
S11333C003C0692D70E002C06FEF7FEFC5014ED1DD
S11333D04C018201F32DFF773F2E15C0280122E016
S11333E0420E511CF801A080B18036FE03C0692D45
S11333F070E002C06FEF7FEFC5012DD14C01F32DBA
S1133400F0683F2E820133FC19C0822D90E08816AB
S11334109906A0F4B60180E290E033D12A94F5CF66
S1133420F50137FC859137FE81915F01B60190E08B
S113343028D121102A9421E0821A91088114910440
S113344079F7E1C0843611F0893639F5F80137FE91
S113345007C060817181828193810C5F1F4F08C016
S113346060817181072E000C880B990B0E5F1F4F32
S1133470F32DFF763F2E97FF09C0909580957095A8
S113348061957F4F8F4F9F4FF0683F2E2AE030E0C9
S1133490A30133D1882E861844C0853731F4232DF7
S11334A02F7EB22E2AE030E025C0932D997FB92ECD
S11334B08F36C1F018F4883579F0AEC0803719F032
S11334C0883721F0A9C0E92FE061BE2EB4FE0DC0FB
S11334D0FB2DF460BF2E09C034FE0AC0292F2660DC
S11334E0B22E06C028E030E005C020E130E002C082
S11334F020E132E0F801B7FE07C06081718182816A
S113350093810C5F1F4F06C06081718180E090E061
S11335100E5F1F4FA301F1D0882E8618FB2DFF7775
S11335203F2E36FE0DC0232D2E7FA22E891458F473
S113353034FE0BC032FC09C0832D8E7EA82E05C03C
S1133540B82CA32C03C0B82C01C0B92CA4FE0FC006
S1133550FE01E80DF11D8081803321F49A2D997EBE
S1133560A92E09C0A2FE06C0B394B39404C08A2D48
S1133570867809F0B394A3FC10C0A0FE06C0B21470
S113358080F4280C922C9B180DC0B21458F4B60188
S113359080E290E076D0B394F8CFB21418F42B18EC
S11335A002C0982C212CA4FE0FC0B60180E390E049
S11335B068D0A2FE16C0A1FC03C088E790E002C058
S11335C088E590E0B6010CC08A2D867851F0A1FE02
S11335D002C08BE201C080E2A7FC8DE2B60190E05C
S11335E050D0891430F4B60180E390E04AD09A9424
S11335F0F8CF8A94F301E80DF11D8081B60190E0C3
S113360040D08110F6CF222009F44ECEB60180E2DC
S113361090E037D02A94F7CFF6018681978102C0D3
S11336208FEF9FEF2B960FB6F894DEBF0FBECDBF82
S1133630DF91CF911F910F91FF90EF90DF90CF908A
S1133640BF90AF909F908F907F906F905F904F90BE
S11336503F902F900895FC01059061507040011037
S1133660D8F7809590958E0F9F1F0895FC016150A7
S1133670704001900110D8F7809590958E0F9F1F90
S113368008950F931F93CF93DF93FB01238121FDB3
S113369003C08FEF9FEF2CC022FF16C046815781D5
S11336A0248135814217530744F4A081B1819D01DF
S11336B02F5F3F4F318320838C93268137812F5F87
S11336C03F4F3783268314C08B01EC01FB01008438
S11336D0F185E02D0995892BE1F6D80116968D9197
S11336E09C911797019617969C938E931697CE01EB
S11336F0DF91CF911F910F910895FA01AA272830E5
S113370051F1203181F1E8946F936E7F6E5F7F4FAA
S11337108F4F9F4FAF4FB1E03ED0B4E03CD0670F26
S1133720781F891F9A1FA11D680F791F8A1F911D79
S1133730A11D6A0F711D811D911DA11D20D009F4C9
S113374068943F912AE0269F11243019305D31930B
S1133750DEF6CF010895462F4770405D4193B3E0F4
S11337600FD0C9F7F6CF462F4F70405D4A3318F09B
S1133770495D31FD4052419302D0A9F7EACFB4E04C
S1133780A6959795879577956795BA95C9F7009704
S11337906105710508959B01AC010A2E06945795A5
S11337A0479537952795BA95C9F7620F731F841FFC
S10D37B0951FA01D0895F894FFCFA3
S11337BA110000000AD7233C783D2534642C207973
S11137CA3D253464006465673D2533640000CA
S9030000FC
